{
  "_format": "hh-sol-artifact-1",
  "contractName": "DataSwarm",
  "sourceName": "contracts/DataSwarm.sol",
  "abi": [
    {
      "inputs": [],
      "stateMutability": "nonpayable",
      "type": "constructor"
    },
    {
      "inputs": [
        {
          "internalType": "address",
          "name": "owner",
          "type": "address"
        }
      ],
      "name": "OwnableInvalidOwner",
      "type": "error"
    },
    {
      "inputs": [
        {
          "internalType": "address",
          "name": "account",
          "type": "address"
        }
      ],
      "name": "OwnableUnauthorizedAccount",
      "type": "error"
    },
    {
      "inputs": [],
      "name": "ReentrancyGuardReentrantCall",
      "type": "error"
    },
    {
      "anonymous": false,
      "inputs": [
        {
          "indexed": true,
          "internalType": "uint256",
          "name": "datasetId",
          "type": "uint256"
        },
        {
          "indexed": true,
          "internalType": "address",
          "name": "contributor",
          "type": "address"
        },
        {
          "indexed": false,
          "internalType": "string",
          "name": "storageHash",
          "type": "string"
        },
        {
          "indexed": false,
          "internalType": "uint256",
          "name": "price",
          "type": "uint256"
        }
      ],
      "name": "DatasetListed",
      "type": "event"
    },
    {
      "anonymous": false,
      "inputs": [
        {
          "indexed": true,
          "internalType": "uint256",
          "name": "datasetId",
          "type": "uint256"
        },
        {
          "indexed": true,
          "internalType": "address",
          "name": "buyer",
          "type": "address"
        },
        {
          "indexed": false,
          "internalType": "uint256",
          "name": "price",
          "type": "uint256"
        }
      ],
      "name": "DatasetPurchased",
      "type": "event"
    },
    {
      "anonymous": false,
      "inputs": [
        {
          "indexed": true,
          "internalType": "uint256",
          "name": "datasetId",
          "type": "uint256"
        },
        {
          "indexed": false,
          "internalType": "uint8",
          "name": "score",
          "type": "uint8"
        },
        {
          "indexed": false,
          "internalType": "string",
          "name": "reportHash",
          "type": "string"
        }
      ],
      "name": "DatasetValidated",
      "type": "event"
    },
    {
      "anonymous": false,
      "inputs": [
        {
          "indexed": true,
          "internalType": "uint256",
          "name": "datasetId",
          "type": "uint256"
        },
        {
          "indexed": true,
          "internalType": "address",
          "name": "contributor",
          "type": "address"
        },
        {
          "indexed": false,
          "internalType": "uint256",
          "name": "amount",
          "type": "uint256"
        }
      ],
      "name": "EarningsWithdrawn",
      "type": "event"
    },
    {
      "anonymous": false,
      "inputs": [
        {
          "indexed": true,
          "internalType": "address",
          "name": "previousOwner",
          "type": "address"
        },
        {
          "indexed": true,
          "internalType": "address",
          "name": "newOwner",
          "type": "address"
        }
      ],
      "name": "OwnershipTransferred",
      "type": "event"
    },
    {
      "inputs": [],
      "name": "BPS_DENOMINATOR",
      "outputs": [
        {
          "internalType": "uint256",
          "name": "",
          "type": "uint256"
        }
      ],
      "stateMutability": "view",
      "type": "function"
    },
    {
      "inputs": [],
      "name": "PLATFORM_FEE_BPS",
      "outputs": [
        {
          "internalType": "uint256",
          "name": "",
          "type": "uint256"
        }
      ],
      "stateMutability": "view",
      "type": "function"
    },
    {
      "inputs": [],
      "name": "getAllDatasets",
      "outputs": [
        {
          "components": [
            {
              "internalType": "uint256",
              "name": "id",
              "type": "uint256"
            },
            {
              "internalType": "string",
              "name": "storageHash",
              "type": "string"
            },
            {
              "internalType": "string",
              "name": "metadataURI",
              "type": "string"
            },
            {
              "internalType": "address",
              "name": "contributor",
              "type": "address"
            },
            {
              "internalType": "uint256",
              "name": "price",
              "type": "uint256"
            },
            {
              "internalType": "uint8",
              "name": "validationScore",
              "type": "uint8"
            },
            {
              "internalType": "string",
              "name": "validationReportHash",
              "type": "string"
            },
            {
              "internalType": "bool",
              "name": "isValidated",
              "type": "bool"
            },
            {
              "internalType": "uint256",
              "name": "totalPurchases",
              "type": "uint256"
            },
            {
              "internalType": "uint256",
              "name": "earnings",
              "type": "uint256"
            },
            {
              "internalType": "uint256",
              "name": "createdAt",
              "type": "uint256"
            }
          ],
          "internalType": "struct DataSwarm.Dataset[]",
          "name": "",
          "type": "tuple[]"
        }
      ],
      "stateMutability": "view",
      "type": "function"
    },
    {
      "inputs": [
        {
          "internalType": "uint256",
          "name": "datasetId",
          "type": "uint256"
        }
      ],
      "name": "getDataset",
      "outputs": [
        {
          "components": [
            {
              "internalType": "uint256",
              "name": "id",
              "type": "uint256"
            },
            {
              "internalType": "string",
              "name": "storageHash",
              "type": "string"
            },
            {
              "internalType": "string",
              "name": "metadataURI",
              "type": "string"
            },
            {
              "internalType": "address",
              "name": "contributor",
              "type": "address"
            },
            {
              "internalType": "uint256",
              "name": "price",
              "type": "uint256"
            },
            {
              "internalType": "uint8",
              "name": "validationScore",
              "type": "uint8"
            },
            {
              "internalType": "string",
              "name": "validationReportHash",
              "type": "string"
            },
            {
              "internalType": "bool",
              "name": "isValidated",
              "type": "bool"
            },
            {
              "internalType": "uint256",
              "name": "totalPurchases",
              "type": "uint256"
            },
            {
              "internalType": "uint256",
              "name": "earnings",
              "type": "uint256"
            },
            {
              "internalType": "uint256",
              "name": "createdAt",
              "type": "uint256"
            }
          ],
          "internalType": "struct DataSwarm.Dataset",
          "name": "",
          "type": "tuple"
        }
      ],
      "stateMutability": "view",
      "type": "function"
    },
    {
      "inputs": [],
      "name": "getTotalDatasets",
      "outputs": [
        {
          "internalType": "uint256",
          "name": "count",
          "type": "uint256"
        }
      ],
      "stateMutability": "view",
      "type": "function"
    },
    {
      "inputs": [
        {
          "internalType": "uint256",
          "name": "datasetId",
          "type": "uint256"
        },
        {
          "internalType": "address",
          "name": "buyer",
          "type": "address"
        }
      ],
      "name": "hasAccess",
      "outputs": [
        {
          "internalType": "bool",
          "name": "",
          "type": "bool"
        }
      ],
      "stateMutability": "view",
      "type": "function"
    },
    {
      "inputs": [
        {
          "internalType": "string",
          "name": "storageHash",
          "type": "string"
        },
        {
          "internalType": "uint256",
          "name": "price",
          "type": "uint256"
        },
        {
          "internalType": "string",
          "name": "metadataURI",
          "type": "string"
        }
      ],
      "name": "listDataset",
      "outputs": [
        {
          "internalType": "uint256",
          "name": "datasetId",
          "type": "uint256"
        }
      ],
      "stateMutability": "nonpayable",
      "type": "function"
    },
    {
      "inputs": [],
      "name": "owner",
      "outputs": [
        {
          "internalType": "address",
          "name": "",
          "type": "address"
        }
      ],
      "stateMutability": "view",
      "type": "function"
    },
    {
      "inputs": [
        {
          "internalType": "uint256",
          "name": "datasetId",
          "type": "uint256"
        }
      ],
      "name": "purchaseDataset",
      "outputs": [],
      "stateMutability": "payable",
      "type": "function"
    },
    {
      "inputs": [],
      "name": "renounceOwnership",
      "outputs": [],
      "stateMutability": "nonpayable",
      "type": "function"
    },
    {
      "inputs": [
        {
          "internalType": "uint256",
          "name": "datasetId",
          "type": "uint256"
        },
        {
          "internalType": "uint8",
          "name": "score",
          "type": "uint8"
        },
        {
          "internalType": "string",
          "name": "reportHash",
          "type": "string"
        }
      ],
      "name": "submitValidation",
      "outputs": [],
      "stateMutability": "nonpayable",
      "type": "function"
    },
    {
      "inputs": [
        {
          "internalType": "address",
          "name": "newOwner",
          "type": "address"
        }
      ],
      "name": "transferOwnership",
      "outputs": [],
      "stateMutability": "nonpayable",
      "type": "function"
    },
    {
      "inputs": [
        {
          "internalType": "uint256",
          "name": "datasetId",
          "type": "uint256"
        }
      ],
      "name": "withdrawEarnings",
      "outputs": [],
      "stateMutability": "nonpayable",
      "type": "function"
    }
  ],
  "bytecode": "0x6080604052600160035534801561001557600080fd5b5060017f9b779b17422d0df92223018b32b4d1fa46e071723d6817e2486d003becc55f0055338061006057604051631e4fbdf760e01b81526000600482015260240160405180910390fd5b6100698161006f565b506100bf565b600080546001600160a01b038381166001600160a01b0319831681178455604051919092169283917f8be0079c531659141344cd1fd0a4f28419497f9722a3daafe3b4186f6b6457e09190a35050565b61197e806100ce6000396000f3fe6080604052600436106100c25760003560e01c8063715018a61161007f578063ced1419811610059578063ced14198146101d9578063e1a4521814610209578063ee0042211461021f578063f2fde38b1461024c57600080fd5b8063715018a61461017c5780638da5cb5b14610191578063980e9f96146101b957600080fd5b80630be8a064146100c75780631af8e976146100fa57806349ee56f91461010f5780634d72cd1214610124578063539aa77f146101465780636e70096e1461015c575b600080fd5b3480156100d357600080fd5b506100e76100e23660046112c4565b61026c565b6040519081526020015b60405180910390f35b34801561010657600080fd5b506100e761050e565b61012261011d36600461133e565b610524565b005b34801561013057600080fd5b50610139610889565b6040516100f1919061146b565b34801561015257600080fd5b506100e76103e881565b34801561016857600080fd5b5061012261017736600461133e565b610b72565b34801561018857600080fd5b50610122610d5f565b34801561019d57600080fd5b506000546040516001600160a01b0390911681526020016100f1565b3480156101c557600080fd5b506101226101d43660046114cf565b610d73565b3480156101e557600080fd5b506101f96101f436600461154d565b610e73565b60405190151581526020016100f1565b34801561021557600080fd5b506100e761271081565b34801561022b57600080fd5b5061023f61023a36600461133e565b610ea0565b6040516100f19190611579565b34801561025857600080fd5b50610122610267366004611593565b61110f565b60008084116102c25760405162461bcd60e51b815260206004820152601c60248201527f44617461537761726d3a207072696365206d757374206265203e20300000000060448201526064015b60405180910390fd5b8461030f5760405162461bcd60e51b815260206004820152601f60248201527f44617461537761726d3a2073746f72616765486173682072657175697265640060448201526064016102b9565b6003805490600061031f836115c4565b91905055905060405180610160016040528082815260200187878080601f016020809104026020016040519081016040528093929190818152602001838380828437600092019190915250505090825250604080516020601f870181900481028201810190925285815291810191908690869081908401838280828437600092018290525093855250503360208085019190915260408085018a90526060850184905280518083018252848152608086015260a0850184905260c0850184905260e0850184905242610100909501949094528583526001808252939092208451815591840151919283019161041591508261167e565b506040820151600282019061042a908261167e565b5060608201516003820180546001600160a01b0319166001600160a01b039092169190911790556080820151600482015560a082015160058201805460ff191660ff90921691909117905560c08201516006820190610489908261167e565b5060e082015160078201805460ff19169115159190911790556101008201516008820155610120820151600982015561014090910151600a90910155604051339082907f3febc0b9016c470fe4703c70386627886964491855724cfab383e030d903cd0f906104fd908a908a908a90611767565b60405180910390a395945050505050565b6000600160035461051f919061178b565b905090565b61052c61114a565b6000818152600160205260408120805490910361055b5760405162461bcd60e51b81526004016102b99061179e565b600781015460ff166105bb5760405162461bcd60e51b8152602060048201526024808201527f44617461537761726d3a2064617461736574206e6f74207965742076616c6964604482015263185d195960e21b60648201526084016102b9565b8060040154341461061a5760405162461bcd60e51b815260206004820152602360248201527f44617461537761726d3a20696e636f7272656374207061796d656e7420616d6f6044820152621d5b9d60ea1b60648201526084016102b9565b600082815260026020908152604080832033845290915290205460ff16156106845760405162461bcd60e51b815260206004820152601c60248201527f44617461537761726d3a20616c7265616479207075726368617365640000000060448201526064016102b9565b60038101546001600160a01b031633036106fb5760405162461bcd60e51b815260206004820152603260248201527f44617461537761726d3a20636f6e7472696275746f722063616e6e6f742070756044820152711c98da185cd9481bdddb8819185d185cd95d60721b60648201526084016102b9565b60008281526002602090815260408083203384529091528120805460ff19166001908117909155600883018054919290916107379084906117df565b909155506000905061271061074e6103e8346117f2565b6107589190611809565b90506000610766823461178b565b90508083600901600082825461077c91906117df565b9091555050600080546040516001600160a01b039091169084908381818185875af1925050503d80600081146107ce576040519150601f19603f3d011682016040523d82523d6000602084013e6107d3565b606091505b50509050806108345760405162461bcd60e51b815260206004820152602760248201527f44617461537761726d3a20706c6174666f726d20666565207472616e736665726044820152660819985a5b195960ca1b60648201526084016102b9565b604051348152339086907f313d5c7bf54e15a1b7dc24a51b097c6458663a33e7a4be386f80fea411dcda659060200160405180910390a350505050610886600160008051602061192983398151915255565b50565b60606000600160035461089c919061178b565b905060008167ffffffffffffffff8111156108b9576108b96115dd565b6040519080825280602002602001820160405280156108f257816020015b6108df611213565b8152602001906001900390816108d75790505b50905060005b82811015610b6b576001600061090e83836117df565b81526020019081526020016000206040518061016001604052908160008201548152602001600182018054610942906115f3565b80601f016020809104026020016040519081016040528092919081815260200182805461096e906115f3565b80156109bb5780601f10610990576101008083540402835291602001916109bb565b820191906000526020600020905b81548152906001019060200180831161099e57829003601f168201915b505050505081526020016002820180546109d4906115f3565b80601f0160208091040260200160405190810160405280929190818152602001828054610a00906115f3565b8015610a4d5780601f10610a2257610100808354040283529160200191610a4d565b820191906000526020600020905b815481529060010190602001808311610a3057829003601f168201915b505050918352505060038201546001600160a01b0316602082015260048201546040820152600582015460ff166060820152600682018054608090920191610a94906115f3565b80601f0160208091040260200160405190810160405280929190818152602001828054610ac0906115f3565b8015610b0d5780601f10610ae257610100808354040283529160200191610b0d565b820191906000526020600020905b815481529060010190602001808311610af057829003601f168201915b5050509183525050600782015460ff16151560208201526008820154604082015260098201546060820152600a909101546080909101528251839083908110610b5857610b5861182b565b60209081029190910101526001016108f8565b5092915050565b610b7a61114a565b60008181526001602052604081208054909103610ba95760405162461bcd60e51b81526004016102b99061179e565b60038101546001600160a01b03163314610c055760405162461bcd60e51b815260206004820152601e60248201527f44617461537761726d3a206e6f742074686520636f6e7472696275746f72000060448201526064016102b9565b600981015480610c625760405162461bcd60e51b815260206004820152602260248201527f44617461537761726d3a206e6f206561726e696e677320746f20776974686472604482015261617760f01b60648201526084016102b9565b600060098301819055604051339083908381818185875af1925050503d8060008114610caa576040519150601f19603f3d011682016040523d82523d6000602084013e610caf565b606091505b5050905080610d0e5760405162461bcd60e51b815260206004820152602560248201527f44617461537761726d3a207769746864726177616c207472616e736665722066604482015264185a5b195960da1b60648201526084016102b9565b604051828152339085907f866aea0b3af973950877422d00f012eedfb09a5aaf9f70831e982d3a4bf3de039060200160405180910390a3505050610886600160008051602061192983398151915255565b610d67611166565b610d716000611193565b565b610d7b611166565b60008481526001602052604081208054909103610daa5760405162461bcd60e51b81526004016102b99061179e565b60648460ff161115610dfe5760405162461bcd60e51b815260206004820152601f60248201527f44617461537761726d3a2073636f7265206d757374206265203c3d203130300060448201526064016102b9565b60058101805460ff191660ff861617905560068101610e1e838583611841565b5060078101805460ff1916600117905560405185907f4ad6afb3fed539e8474f369f2172b82603bcfb07111b816c113c052f9033193790610e6490879087908790611902565b60405180910390a25050505050565b60008281526002602090815260408083206001600160a01b038516845290915290205460ff165b92915050565b610ea8611213565b6000828152600160205260408120549003610ed55760405162461bcd60e51b81526004016102b99061179e565b6000828152600160208181526040928390208351610160810190945280548452918201805491840191610f07906115f3565b80601f0160208091040260200160405190810160405280929190818152602001828054610f33906115f3565b8015610f805780601f10610f5557610100808354040283529160200191610f80565b820191906000526020600020905b815481529060010190602001808311610f6357829003601f168201915b50505050508152602001600282018054610f99906115f3565b80601f0160208091040260200160405190810160405280929190818152602001828054610fc5906115f3565b80156110125780601f10610fe757610100808354040283529160200191611012565b820191906000526020600020905b815481529060010190602001808311610ff557829003601f168201915b505050918352505060038201546001600160a01b0316602082015260048201546040820152600582015460ff166060820152600682018054608090920191611059906115f3565b80601f0160208091040260200160405190810160405280929190818152602001828054611085906115f3565b80156110d25780601f106110a7576101008083540402835291602001916110d2565b820191906000526020600020905b8154815290600101906020018083116110b557829003601f168201915b5050509183525050600782015460ff16151560208201526008820154604082015260098201546060820152600a9091015460809091015292915050565b611117611166565b6001600160a01b03811661114157604051631e4fbdf760e01b8152600060048201526024016102b9565b61088681611193565b6111526111e3565b600260008051602061192983398151915255565b6000546001600160a01b03163314610d715760405163118cdaa760e01b81523360048201526024016102b9565b600080546001600160a01b038381166001600160a01b0319831681178455604051919092169283917f8be0079c531659141344cd1fd0a4f28419497f9722a3daafe3b4186f6b6457e09190a35050565b60008051602061192983398151915254600203610d7157604051633ee5aeb560e01b815260040160405180910390fd5b60405180610160016040528060008152602001606081526020016060815260200160006001600160a01b0316815260200160008152602001600060ff168152602001606081526020016000151581526020016000815260200160008152602001600081525090565b60008083601f84011261128d57600080fd5b50813567ffffffffffffffff8111156112a557600080fd5b6020830191508360208285010111156112bd57600080fd5b9250929050565b6000806000806000606086880312156112dc57600080fd5b853567ffffffffffffffff808211156112f457600080fd5b61130089838a0161127b565b909750955060208801359450604088013591508082111561132057600080fd5b5061132d8882890161127b565b969995985093965092949392505050565b60006020828403121561135057600080fd5b5035919050565b6000815180845260005b8181101561137d57602081850181015186830182015201611361565b506000602082860101526020601f19601f83011685010191505092915050565b60006101608251845260208301518160208601526113bd82860182611357565b915050604083015184820360408601526113d78282611357565b91505060608301516113f460608601826001600160a01b03169052565b506080830151608085015260a083015161141360a086018260ff169052565b5060c083015184820360c086015261142b8282611357565b91505060e083015161144160e086018215159052565b50610100838101519085015261012080840151908501526101409283015192909301919091525090565b600060208083016020845280855180835260408601915060408160051b87010192506020870160005b828110156114c257603f198886030184526114b085835161139d565b94509285019290850190600101611494565b5092979650505050505050565b600080600080606085870312156114e557600080fd5b84359350602085013560ff811681146114fd57600080fd5b9250604085013567ffffffffffffffff81111561151957600080fd5b6115258782880161127b565b95989497509550505050565b80356001600160a01b038116811461154857600080fd5b919050565b6000806040838503121561156057600080fd5b8235915061157060208401611531565b90509250929050565b60208152600061158c602083018461139d565b9392505050565b6000602082840312156115a557600080fd5b61158c82611531565b634e487b7160e01b600052601160045260246000fd5b6000600182016115d6576115d66115ae565b5060010190565b634e487b7160e01b600052604160045260246000fd5b600181811c9082168061160757607f821691505b60208210810361162757634e487b7160e01b600052602260045260246000fd5b50919050565b601f821115611679576000816000526020600020601f850160051c810160208610156116565750805b601f850160051c820191505b8181101561167557828155600101611662565b5050505b505050565b815167ffffffffffffffff811115611698576116986115dd565b6116ac816116a684546115f3565b8461162d565b602080601f8311600181146116e157600084156116c95750858301515b600019600386901b1c1916600185901b178555611675565b600085815260208120601f198616915b82811015611710578886015182559484019460019091019084016116f1565b508582101561172e5787850151600019600388901b60f8161c191681555b5050505050600190811b01905550565b81835281816020850137506000828201602090810191909152601f909101601f19169091010190565b60408152600061177b60408301858761173e565b9050826020830152949350505050565b81810381811115610e9a57610e9a6115ae565b60208082526021908201527f44617461537761726d3a206461746173657420646f6573206e6f7420657869736040820152601d60fa1b606082015260800190565b80820180821115610e9a57610e9a6115ae565b8082028115828204841417610e9a57610e9a6115ae565b60008261182657634e487b7160e01b600052601260045260246000fd5b500490565b634e487b7160e01b600052603260045260246000fd5b67ffffffffffffffff831115611859576118596115dd565b61186d8361186783546115f3565b8361162d565b6000601f8411600181146118a157600085156118895750838201355b600019600387901b1c1916600186901b1783556118fb565b600083815260209020601f19861690835b828110156118d257868501358255602094850194600190920191016118b2565b50868210156118ef5760001960f88860031b161c19848701351681555b505060018560011b0183555b5050505050565b60ff8416815260406020820152600061191f60408301848661173e565b9594505050505056fe9b779b17422d0df92223018b32b4d1fa46e071723d6817e2486d003becc55f00a2646970667358221220b13bcded5736520f422b83a6f50563392542d4fa2c9d1cd4ef45261912c5232464736f6c63430008180033",
  "linkReferences": {},
  "deployedLinkReferences": {}
}